:020000040800F2
:10000000000001209D250008C9060008CB06000855
:10001000CD060008CF060008D10600080000000049
:10002000000000000000000000000000D3060008EF
:10003000D5060008000000006F020008D70600087F
:10004000E5250008E5250008E5250008E525000868
:10005000E5250008E5250008E5250008E525000858
:10006000E5250008E5250008E5250008E525000848
:10007000E5250008E5250008E5250008E525000838
:10008000E5250008E5250008E5250008E525000828
:10009000E5250008E5250008E5250008E525000818
:1000A000E5250008E5250008E5250008E525000808
:1000B000E5250008E5250008E5250008E5250008F8
:1000C000E5250008E5250008E5250008E5250008E8
:1000D000E5250008E5250008E5250008E5250008D8
:1000E000E5250008E5250008E5250008E5250008C8
:1000F000E5250008E5250008E5250008E5250008B8
:10010000E5250008E5250008E5250008E5250008A7
:10011000E5250008E5250008E5250008E525000897
:10012000E5250008E5250008E5250008E525000887
:1001300000000000000000000000000000000000BF
:1001400000000000000000000000000000000000AF
:10015000000000000000000000000000000000009F
:10016000000000000000000000000000000000008F
:10017000000000000000000000000000000000007F
:10018000000000000000000000000000000000006F
:10019000000000000000000000000000000000005F
:1001A000000000000000000000000000000000004F
:1001B000000000000000000000000000000000003F
:1001C000000000000000000000000000000000002F
:1001D000000000000000000000000000000000001F
:0401E0005FF8E0F1F3
:1001E40010B5054C237833B9044B13B10448AFF36D
:1001F40000800123237010BDA8000020000000002F
:100204008035000808B5034B1BB103490348AFF31D
:10021400008008BD00000000AC000020803500080C
:1002240072B6704762B67047EFF3108072B67047CB
:1002340080F310887047B0FA80F0704717484FF089
:10024400FF010160002080F3098815484FF08051B8
:10025400016062B6FEE712484FF0805101607047BA
:100264000F484FF080510160704772B6EFF3098078
:1002740028B1203880E8F00F0A4909680860094865
:1002840009490A680260106890E8F00F203080F392
:1002940009884EF0040E62B6704700BF22ED00E0FC
:1002A40004ED00E0C8000020D000002053B94AB992
:1002B400002908BF00281CBF4FF0FF314FF0FF306A
:1002C40000F074B9ADF1080C6DE904CE00F006F845
:1002D400DDF804E0DDE9022304B070472DE9F047BE
:1002E4008C460446089E002B40F086808A421546C0
:1002F40048D9B2FA82F24AB1C2F1200701FA02F3F4
:1003040020FA07F7954047EA030C94404FEA154E4C
:10031400BCFBFEF71FFA85F80EFB17C307FB08F9B1
:10032400210C41EA0343994509D9EB1807F1FF3140
:1003340080F0E180994540F2DE80023F2B44A3EB3C
:100344000903B3FBFEF00EFB103300FB08F1A4B26B
:1003540044EA0344A14209D92C1900F1FF3380F087
:10036400C880A14240F2C58002382C4440EA0740CC
:100374000027641A1EB10023D440C6E9004339465D
:10038400BDE8F087002A54D0B2FA82F2002A40F085
:10039400B4800127491B4FEA15481FFA85F9B1FBC0
:1003A400F8FE08FB1E1109FB0EF04FEA144C4CEA50
:1003B4000143984207D9EB180EF1FF3102D298425B
:1003C40000F2EB808E461B1AB3FBF8F008FB1033E7
:1003D40009FB00F9A4B244EA0344A14507D92C1946
:1003E40000F1FF3302D2A14500F2DB801846A4EBF2
:1003F400090440EA0E40BDE78B4208D9002E75D0AF
:100404000027C6E9000138463946BDE8F087B3FA4B
:1004140083F77FB98B4202D3824200F2BC80841AF4
:1004240061EB030301209C46002EA8D0C6E9004CD2
:10043400A5E7FFDEC7F12005BB4022FA05FC4CEA24
:10044400030C21FA05F44FEA1C4EB4FBFEF91FFA23
:100454008CF80EFB194420FA05F3B94009FB08FA9D
:1004640019430B0C43EA0444A24502FA07F200FACA
:1004740007F30BD91CEB040409F1FF3080F08980E9
:10048400A24540F28680A9F102096444A4EB0A045F
:10049400B4FBFEF00EFB104400FB08FA89B241EAFB
:1004A4000444A24508D91CEB040400F1FF316CD2CA
:1004B400A2456AD90238644440EA0940A0FB028993
:1004C400A4EB0A044C454146CE4655D352D0002EE7
:1004D4006AD05A1A64EB0E0404FA05F522FA07F3FB
:1004E400FC401D43C6E90054002748E73746304620
:1004F40045E718463AE70F4621E79540C2F1200345
:1005040021FA03F04FEA1548B0FBF8F71FFA85F912
:1005140008FB170E24FA03FC914007FB09FA4CEA86
:100524000101080C40EA0E40824504FA02F407D99E
:10053400281807F1FF332AD2824528D9023F2844DC
:10054400A0EB0A00B0FBF8FC08FB1C000CFB09F351
:1005540089B241EA00418B4208D969180CF1FF3095
:1005640011D28B420FD9ACF1020C2944C91A4CEABE
:10057400074714E74345AAD2B8EB020169EB0C0222
:1005840001389646A3E78446F0E7084694E71F46F9
:10059400D6E781467AE7384646E7AEF1020E2B44A9
:1005A40011E702382C4422E73746E8E6704700BFDB
:1005B40010B501214C1C064802F040F820210548E2
:1005C40000F008FD4FF4FA6001F0D5FF2146F1E791
:1005D400D4350008000C014030B591B000240894D3
:1005E40009940B940C940194029403940494059438
:1005F400012206924FF4803307930A9202250D9547
:100604000E934FF4E0130F9306A800F0F3F80F23B2
:100614000193029503944FF480630493059429464F
:1006240001A800F00FFB11B030BD000008B500F0C8
:10063400A7F8FFF7D1FF00F00BF801F059FF0021F4
:10064400024801F05BFF01F04DFFFEE7AC35000806
:1006540030B589B000240494059406940794174B8C
:100664009A6942F010029A619A6902F010020192AA
:10067400019A9A6942F008029A619A6902F00802A2
:100684000292029A9A6942F004029A619B6903F009
:1006940004030393039B0A4D01222321284600F0FF
:1006A40093FC2323049301230593069403230793C4
:1006B40004A9284600F094FB09B030BD00100240A4
:1006C400000C01407047FEE7FEE7FEE7FEE77047D7
:1006D400704708B500F066F801F096FA00B908BD55
:1006E40001F09CFA00F072FE01F002FBF7E7000053
:1006F40082B00E4B9A6942F001029A619A6902F043
:1007040001020092009ADA6942F08052DA61DB69F0
:1007140003F080530193019B054A536823F0E0637F
:1007240043F00073536002B0704700BF00100240F2
:100734000000014010B504460E4B18784FF47A734C
:10074400B3FBF0F30C4A1068B0FBF3F000F08CFC40
:1007540068B90F2C01D901200AE0002221464FF08C
:10076400FF3000F04DFC054B1C60002000E0012030
:1007740010BD00BF0000002008000020040000207D
:1007840008B5074A136843F010031360032000F010
:1007940025FC0020FFF7CEFFFFF7AAFF002008BDCD
:1007A40000200240034A1168034B1B780B4413607A
:1007B400704700BF7803002000000020014B186838
:1007C400704700BF7803002082B0084B1B68084ABA
:1007D400A2FB03235B0A00FB03F0019000BF019B13
:1007E4005A1E0192002BF9D102B070470800002074
:1007F400D34D621070B582B00446036813F0010F44
:100804002CD0AB4B5B6803F00C03042B1DD0A84B1E
:100814005B6803F00C03082B12D06368B3F5803FC8
:1008240041D0002B55D103F1804303F504331A68FA
:1008340022F480321A601A6822F480221A6037E0A7
:100844009B4B5B6813F4803FE7D0994B1B6813F410
:10085400003F03D06368002B00F0AE81236813F0DF
:10086400020F75D0924B5B6813F00C0F5FD0904B66
:100874005B6803F00C03082B54D02369002B00F0B1
:1008840089808C4B01221A60FFF798FF0546884B3C
:100894001B6813F0020F74D1FFF790FF401B02286E
:1008A400F5D903208DE1824A136843F48033136041
:1008B400636843B3FFF782FF05467D4B1B6813F45F
:1008C400003FCBD1FFF77AFF401B6428F5D9032002
:1008D40077E1B3F5A02F09D0754B1A6822F4803262
:1008E4001A601A6822F480221A60E1E703F1804357
:1008F400A3F53C331A6842F480221A601A6842F461
:1009040080321A60D4E7FFF759FF0546684B1B682D
:1009140013F4003FA2D0FFF751FF401B6428F5D920
:1009240003204EE1624B5B6813F4803FA5D1604B1A
:100934001B6813F0020F03D02369012B40F03E81A2
:100944005B4A136823F0F803616943EAC103136047
:10095400236813F0080F32D0A369002B5BD0564BE9
:1009640001221A60FFF72AFF0546514B5B6A13F018
:10097400020F21D1FFF722FF401B0228F5D90320E3
:100984001FE14B4A136823F0F803616943EAC1038A
:100994001360DDE7474B00221A60FFF70FFF05469F
:1009A400434B1B6813F0020FD2D0FFF707FF401B25
:1009B4000228F5D9032004E10120FFF705FF23688D
:1009C40013F0040F00F09880394BDB6913F0805F5B
:1009D40033D1374BDA6942F08052DA61DB6903F0D4
:1009E40080530193019B0125344B1B6813F4807FD2
:1009F40025D0E368012B36D0002B4CD103F1804382
:100A040003F504331A6A22F001021A621A6A22F008
:100A140004021A622CE0284B00221A60FFF7CEFE73
:100A24000546234B5B6A13F0020FC8D0FFF7C6FEDE
:100A3400401B0228F5D90320C3E00025D4E71F4A50
:100A4400136843F480731360FFF7B8FE06461B4B2C
:100A54001B6813F4807FCCD1FFF7B0FE801B6428A1
:100A6400F5D90320ADE0124A136A43F0010313627F
:100A7400E3687BB3FFF7A2FE06460D4B1B6A13F037
:100A8400020F38D1FFF79AFE801B41F28833984257
:100A9400F3D9032095E0052B12D0054B1A6A22F0F6
:100AA40001021A621A6A22F004021A62E0E700BF25
:100AB40000100240000042428004424200700040A4
:100AC400424B1A6A42F004021A621A6A42F00102A4
:100AD4001A62CDE7FFF772FE06463C4B1B6A13F021
:100AE400020F08D0FFF76AFE801B41F28833984258
:100AF400F3D9032065E0E5B9E369002B60D0334AFC
:100B0400526802F00C02082A5DD0022B17D0304B39
:100B140000221A60FFF752FE04462C4B1B6813F0A8
:100B2400007F47D0FFF74AFE001B0228F5D90320B7
:100B340047E0264AD36923F08053D361DCE7244B92
:100B440000221A60FFF73AFE0546204B1B6813F09B
:100B5400007F06D0FFF732FE401B0228F5D90320A0
:100B64002FE0236AB3F5803F1AD018494B6823F469
:100B74007413226A606A024313434B60144B0122CC
:100B84001A60FFF71BFE0446104B1B6813F0007F2E
:100B94000ED1FFF713FE001B0228F5D9032010E045
:100BA4000A4A536823F40033A1680B435360DCE71B
:100BB400002006E0002004E0012002E0012000E023
:100BC400002002B070BD0120FBE700BF001002400E
:100BD4006000424210B487B0164C94E80F000DF147
:100BE400180C0CE90F00238AADF80430124B5B6833
:100BF40003F00C02082A03D0104807B010BC704759
:100C0400C3F38342624412F8102C13F4803F0CD0D7
:100C1400094B5B68C3F34043634413F8143C07482F
:100C240000FB02F0B0FBF3F0E7E7054800FB02F03D
:100C3400E3E700BF983500080010024000127A0074
:100C440000093D00624B1B6803F007038B420BD283
:100C54005F4A136823F007030B431360136803F020
:100C640007038B4240F0AE8070B5036813F0020FA7
:100C740017D013F0040F04D0564A536843F4E063CA
:100C84005360036813F0080F04D0524A536843F4C6
:100C9400605353604F4A536823F0F003846823433E
:100CA40053600D460446036813F0010F52D04368A5
:100CB400012B23D0022B28D0464A126812F0020FCF
:100CC40000F0828043494A6822F0030213434B60D8
:100CD400FFF774FD06466368012B1DD0022B2AD052
:100CE4003C4B5B6813F00C0F34D0FFF767FD801B9F
:100CF40041F288339842F3D9032062E0354A1268FE
:100D040012F4003FDED101205BE0324A126812F097
:100D1400007FD7D1012054E02E4B5B6803F00C0315
:100D2400042B17D0FFF74AFD801B41F28833984209
:100D3400F2D9032045E0274B5B6803F00C03082B32
:100D440008D0FFF73BFD801B41F288339842F2D96B
:100D5400032036E01E4B1B6803F00703AB420AD99D
:100D64001B4A136823F007032B431360136803F033
:100D74000703AB422AD1236813F0040F06D0154AA7
:100D8400536823F4E063E1680B435360236813F072
:100D9400080F07D00F4A536823F46053216943EACC
:100DA400C1035360FFF716FF0A4B5B68C3F30313D9
:100DB400094AD35CD840094B18600020FFF7BAFCFD
:100DC400002070BD012070470120FAE70120F8E7F8
:100DD40000200240001002400836000808000020ED
:100DE400F0B482B000263546A6E0002B5ED0012B7D
:100DF40010D1CE680EE06E4FBB4257D04ED96D4F26
:100E0400BB4253D007F58037BB424FD0A7F58017BC
:100E1400BB424BD0FF2A5DD88446FF2A5DD8AC0084
:100E2400DCF800300F27A74023EA070306FA04F48E
:100E34002343CCF800304B6813F0805F7BD05E4BCB
:100E44009C6944F001049C619B6903F001030193D4
:100E5400019BAC08A71C594B53F827C005F00303AA
:100E64009F000F23BB402CEA030C554B98423AD009
:100E740003F58063984278D003F58063984276D076
:100E840003F58063984274D003F58063984272D06E
:100E940003F58063984224D0062325E0A7F5801744
:100EA400BB4203D007F58037BB42B3D18B687BB11B
:100EB400012B08D044610826ACE7CE680836A9E7C0
:100EC400CE680C36A6E704610826A3E70026A1E74E
:100ED40004269FE700F1040C9FE7A5F10804A40091
:100EE4009EE7052300E00023BB4043EA0C030234E1
:100EF400324F47F824304B6813F4803F3DD0314CD7
:100F04002368134323604B6813F4003F3BD02D4CFC
:100F14006368134363604B6813F4801F39D0294C12
:100F2400A3681343A3604B6813F4001F37D0254C08
:100F3400E3681A43E26001350F2D36D80124AC4032
:100F44000A6822409442F6D14B68122BB8D03FF67F
:100F540052AF022BB1D07FF648AF032BB6D0112B82
:100F64007FF458AFCE68043654E70123BCE702236C
:100F7400BAE70323B8E70423B6E7124C236823EA4D
:100F840002032360BFE70F4C636823EA0203636034
:100F9400C1E70C4CA36823EA0203A360C3E7094C2E
:100FA400E36823EA0202E260C5E702B0F0BC7047DE
:100FB4000000211000003110001002400000014028
:100FC40000080140000401400AB1016170470904AE
:100FD40001617047C3685940C1607047074AD368CC
:100FE40023F4E0631B041B0C000200F4E0601843CC
:100FF40040F0BF6040F40030D060704700ED00E086
:1010040030B4174BDB68C3F30223C3F10704042C89
:1010140028BF04241D1D062D01D9033B00E0002335
:101024004FF0FF3505FA04F421EA0401994005FA6A
:1010340003F322EA03031943002809DB0901C9B2B7
:1010440000F1604000F5614080F8001330BC704747
:1010540000F00F000901C9B2024B1954F6E700BFB2
:1010640000ED00E014ED00E00138B0F1807F0AD219
:10107400064B5860064AF02182F82310002098603D
:1010840007221A6070470120704700BF10E000E09B
:1010940000ED00E00F4B1A6842F001021A60596833
:1010A4000D4A0A405A601A6822F0847222F480328F
:1010B4001A601A6822F480221A605A6822F4FE0226
:1010C4005A604FF41F029A60044B4FF000629A601A
:1010D400704700BF001002400000FFF800ED00E080
:1010E4000138B0F1807F09D2054B5860054AF021E0
:1010F40082F8231000229A6007221A60704700BF0A
:1011040010E000E000ED00E00001C0B2014B83F804
:101114002300704700ED00E008B5FFF78CF808BD28
:1011240008B5FFF781F808BD08B5FFF781F808BDD9
:1011340008B5FFF783F808B5FFF78DF808BD08B5C3
:10114400FFF78EF808BD10B504460020FFF7DCFF5A
:101154002046FFF7C5FF10BD08B5064BD3E90023B1
:10116400054908680021FFF7A1F8044B1860FFF750
:10117400EAFF08BD1000002008000020C400002081
:1011840030B4029C1C4424F00704A34203D2CC25AF
:1011940003F8015BF9E74FF0807344F8043C44F82A
:1011A400080C44F80C2C4FF0123344F8103C4FF068
:1011B400033344F8143C4FF0023344F8183C4FF026
:1011C400013344F81C3C44F8201C4FF0113344F81C
:1011D400243C4FF0103344F8283C4FF0093344F8D2
:1011E4002C3C4FF0083344F8303C4FF0073344F8BC
:1011F400343C4FF0063344F8383C4FF0053344F8A0
:101204003C3C4FF0043344F8403CA4F1400030BC73
:10121400704700002DE9F843804616461F46FFF745
:101224007FFFC8E910671E4B1B68483B00218C46B2
:1012340003E09B6C483B2146AC4603F1480E184A38
:1012440096450FD01A6C54185A6C42EB0C05AF42F9
:1012540008BFA64206D3ECD198F8219093F8212038
:101264009145E6D2711A67EB0C02C8F84010C8F831
:1012740044200B4CA64506D01C6C5D6C611A65EBD2
:10128400020219645A6408F14801DA6CD964C8F896
:1012940048E0C8F84C201160FFF746FFBDE8F8832A
:1012A400280000202DE9F8430446FFF739FF04F134
:1012B4004802A36C9A421AD0B3F1480217D01349DA
:1012C4008B4214D0D2E91089236C616C6FF0010554
:1012D400EE1A4FF0FF3565EB01074F4508BF464551
:1012E4000DD318EB030349EB010113645164E36C60
:1012F400A26C53601A60FFF717FFBDE8F8836FF024
:1013040001064FF0FF37C2E91067F0E7280000201C
:1013140010B50446FFF77EFF94F8203043F0010334
:1013240084F8203010BD10B50446FFF7BBFF94F8D5
:10133400203023F0010384F8203010BDF8B50646B0
:101344000F46FFF7EDFE05461E4A136851689B19C8
:1013540047EB0101136051601B4A136893421FD08D
:1013640053E90212974208BF8E421CD30020002189
:1013740043E90201144B186850F84849483C00F10D
:101384004802114B9A4219D0D0E91023134315D1C6
:10139400022100F068F8A36C2046A3F14804EEE7AC
:1013A400FFF7C2FE0DE0881B62EB070243F8080C4E
:1013B40043F8042C2846FFF7B7FE02E02846FFF75F
:1013C400B3FEF8BDD80000202800002008B500F0C6
:1013D4001BFC28B101200021FFF7B0FF00F0BEFD87
:1013E40008BD30B40B68503B03F150028A4208D068
:1013F40090F8215093F82140A54202D31B6D503B35
:10140400F2E700F150055C6D5D6502654465256099
:10141400416690F8203043F0020380F8203030BC5D
:1014240070470368984204D0503B04D093F82100DD
:1014340070470A2070470A207047436D026D53605D
:101444001A600023436690F8203023F0020380F8EA
:101454002030704708B5426D016D4A601160416EDD
:10146400FFF7BFFF08BD10B5044690F8203013F015
:10147400020F0AD194F8203013F0010F0AD194F826
:10148400203013F0040F09D010BD80F86810FFF766
:10149400D4FFEFE72046FFF746FFF0E7204600F0D1
:1014A400A9F8F1E770B505460E46006850F85049B2
:1014B400503C00F15003AB4207D03146FFF7D3FF55
:1014C400236D2046A3F15004F3E770BD10B500244A
:1014D400054B186818B92034E4B20433F9E7FFF770
:1014E4001BFE2044C0B210BDD0030020034B93F870
:1014F400542053F832005038704700BF8003002056
:101504000E4B0A2283F854200023092B08D80B49D8
:1015140001EBC30241F8332052600133DBB2F4E73C
:10152400002307E003F11401044A002042F82100DB
:101534000133DBB2002BF5D0704700BF80030020DD
:10154400F0B490F82130134A02EBC30452F833206C
:10155400944209D000F150015160026544650D4A7E
:1015640042F83310F0BC70475909DF4307F01F07F6
:10157400012606FA07F7074D143155F821603E435A
:1015840045F8216095F854108B42E3D285F8543025
:10159400E0E700BF8003002070B490F82130144AC3
:1015A40002EBC30452F8332094420BD000F15001F3
:1015B4000F4A02EBC3035A6859600465426511601F
:1015C40070BC70475A09DE4306F01F06012505FA70
:1015D40006F60749143251F82250354341F8225097
:1015E40091F854209342E1D281F85430DEE700BFF1
:1015F4008003002008B590F82120064B1B6893F85F
:1016040021309A4202D0FFF79BFF08BDFFF7C4FFC9
:10161400FBE700BFC800002010B590F82130134A42
:1016240002EBC304416D006D4160086052F8332041
:10163400944205D00D4A92F854209A4210D010BD1D
:101644005A09D84300F01F00012101FA00F0074CA9
:10165400143254F8221021EA000144F82210E9E778
:10166400FFF734FF014B83F85400E8E780030020C0
:1016740010B50446406A00F0CAFE204600F0C7FEDA
:1016840010BD38B50546806D50F81849183C00F176
:10169400180305F15802934206D000F08DFAA369AD
:1016A4002046A3F11804F2E738BDF8B5044600F06B
:1016B4000DFB002850D1FFF733FD074604F158060F
:1016C400A36D9E4202D02046FFF7DBFF94F8203042
:1016D400002B35D094F8203013F0010F34D194F856
:1016E400203013F0020F33D1A36B626B53601A6086
:1016F4000025257104F12C03E362236304F1340310
:101704006363A36304F14803A364E36404F1500333
:1017140023656365A665E6650A2384F8603084F86A
:1017240068506566E56625676567E580082384F883
:1017340020303846FFF7F8FC00F010FB2846F8BDCF
:101744002046FFF769FFC5E72046FFF7ECFDC6E733
:101754002046FFF772FEC7E740F26D70EFE7000026
:1017640038B5044600F092FA2046FFF79EFF05467E
:1017740078B9204600F0B2FA70B104F12C02084B9B
:1017840019684A60E16223631A6000F009FB284685
:1017940038BD00F005FBFAE72046FFF769FFF4E7E0
:1017A4001800002008B50379012B02D040F24E4006
:1017B40008BDFFF77AFFFBE770B50546846D183C5A
:1017C4000A2601E0A469183C04F1180305F1580243
:1017D400934206D0201DFFF724FE8642F2D9064626
:1017E400F0E7304670BD00002DE9F04E82B00446AB
:1017F4008B4616469A469DF828900C9F00F03EFAB8
:1018040000286ED1002C6FD0002E70D00B9B002BC3
:1018140070D0E2884DF6D8239A426ED03F2F6FD90C
:10182400B9F1090F51D0B9F1090F6CD804F12C03A7
:10183400E362236304F1340204F14803A364E36420
:1018440004F150032365636504F15803A365E3655C
:101854000A2384F86030002584F868506566E566DC
:1018640025676567294B19684A606163A3631A6039
:101874004DF6D823E3800123237100970B9B244A60
:1018840051463046FFF77CFC2060A661C4F81CA0DA
:1018940084F821900B9B6362A7621022594604F1DD
:1018A400080000F0E3FEFFF73BFC064684F82050F6
:1018B4002046FFF771FE3046FFF736FC00F0A4F92E
:1018C40058B9002002B0BDE8F08E204600F0FEF9C1
:1018D4000028A8D140F26F70F4E700F03FFA2846E0
:1018E400F0E74FF4C870EDE740F24C40EAE740F20D
:1018F4004C40E7E740F24C40E4E740F26C70E1E72B
:1019040040F27470DEE740F26F70DBE720000020E5
:101914005D1A000838B5FFF703FC05460C4B186840
:1019240050F82C492C3C00F12C02094B9A420AD065
:10193400036BC26A53601A60FFF79AFEE36A20469B
:10194400A3F12C04EFE72846FFF7EEFB38BD00BFF8
:10195400180000202DE9F04784B006468946174652
:101964009A469DF830400D9D00F088F990BBA6B3CF
:10197400B7B33F2D37D9092C38D03AD88821012064
:1019840000F037FD8046B8B3284600F023FDB8B117
:10199400C8F824000E9A03920295019000945346CD
:1019A4003A4649464046FFF71FFF044670B90223F2
:1019B40088F80430C6F80080204604B0BDE8F087FB
:1019C400404600F024FD40F27574F5E74046FFF709
:1019D4004FFEF1E74FF4C874EEE740F24C44EBE7F6
:1019E40040F24C44E8E740F27474E5E740F26F7467
:1019F400E2E740F26F74DFE740F27574DCE7000061
:101A040010B5044600F03AF908BB3CB1E2884DF643
:101A1400D8239A4205D040F24D4010BD0D4B1C68AE
:101A2400F4E7204600F05AF930B92379022B0AD0A2
:101A34002046FFF7B7FEF0E700F018F90028F4D0CD
:101A440040F2A460E9E72046FFF78AFEE5E74FF499
:101A5400C870E2E7C800002008B50020FFF7D0FFF7
:101A640008BD000038B500F009F900B138BDFFF732
:101A740057FB0546064C2068FFF7CEFD2068FFF7AC
:101A84008BFD2846FFF750FB00F068F9EEE700BF36
:101A9400C800002070B504460D4600F0EFF8002899
:101AA4004CD1002C4DD0E2884DF6D8239A424BD12C
:101AB400082D4CD8FFF734FB064694F82130AB428E
:101AC4001DD004F15803A26D934207D02046FFF7BE
:101AD40073FE854202D984F86050054694F820309C
:101AE40013F0020F11D113F0010F14D084F8215018
:101AF4003046FFF719FB00F031F9002070BDFFF705
:101B040013FB00F02BF90020F8E784F8215020465D
:101B1400FFF7A0FCECE7002BEAD12046FFF77CFDA1
:101B240084F82150204600F0D9F818B12046FFF778
:101B340007FDDDE72046FFF72FFDD9E74FF4C87016
:101B4400DCE740F24C40D9E740F24D40D6E740F2A2
:101B54006F70D3E7F8B505460C4600F08FF808BB64
:101B640000F084F808BB55EA040317D005EA04031F
:101B7400B3F1FF3F1CD0FFF7D3FA07460D4E2A46B8
:101B840023463068FFF7C4FB3068FFF745FD38464D
:101B9400FFF7CAFA00F0E2F80020F8BDFFF762FF91
:101BA4000020FAE74FF4C870F7E740F2A460F4E7C6
:101BB4006520F2E7C800002038B504460569C3690A
:101BC400826953601A6000230361037395F86010FF
:101BD4000A290AD195F82130017D8B420BD0284681
:101BE400FFF758FF0A23237505E02846FFF752FF45
:101BF4000A2385F8603004216018FFF753FC38BDD0
:101C040008B5FFF787FEFCE7034B1878012814BFDB
:101C140000200120704700BFCD00002008B5FFF769
:101C2400F3FF30B1034B1B78F92B02D80133014A7F
:101C3400137008BDCC00002008B5FFF7E5FF60B9BC
:101C4400FFF754FC064B1860064B1860064B012244
:101C54001A70FFF76DFA002008BD40F2F510FBE79B
:101C6400D0000020C8000020CD000020024B1878CE
:101C7400003018BF01207047D4000020024B1878B0
:101C8400003018BF01207047CC00002008B5FFF7D2
:101C9400F5FF80B9FFF7B8FF80B10B4B1B78F92B28
:101CA4000FD8FFF73DFA084A137801331370FFF792
:101CB4003BFA002008BD4FF4C870FBE74FF4FA70FC
:101CC400F8E74FF41670F5E7D4000020024B834286
:101CD40014BF00200120704760120020034B1B68D2
:101CE400834214BF00200120704700BFC8000020B9
:101CF40010B5FFF789FF00B910BDFFF711FA0446CC
:101D0400FFF7BCFFB0B1134A1378013B1370FFF720
:101D1400B5FF98B9FFF7AAFFA0B9FFF7E7FB0E4B91
:101D24001860FFF7DBFF88B9FFF709FA2046FFF7D1
:101D3400FBF9E1E72046FFF7F7F9DDE72046FFF777
:101D4400F3F9D9E72046FFF7EFF9D5E72046FFF787
:101D5400EBF9D1E7CC000020D000002010B5FFF74C
:101D640053FF28B1FFF78AFF10B9FFF77FFF00B1D7
:101D740010BDFFF7D5F90446FFF7B8FB074B186011
:101D8400FFF7ACFF28B9FFF7D6F92046FFF7CCF9E7
:101D9400EEE72046FFF7C8F9EAE700BFD0000020CD
:101DA40008B5FFF76BFF88B9FFF72EFF88B1FFF77F
:101DB4005DFF88B1FFF7B4F9094A1378013B13704A
:101DC400FFF7B2F9FFF7CAFF002008BD4FF4C8704F
:101DD400FBE74FF4FA70F8E740F2A560F5E700BFBF
:101DE400D400002000B585B000230393074A12688D
:101DF4000292074A1268019209220092054A064992
:101E04000648FFF7F1FC05B05DF804FB1C3600083A
:101E140018360008051C000820360008601200204F
:101E240008B5FFF799F9FFF76BFB4FF48071084889
:101E340000F042FB034608B1184608BDFFF7D2FF85
:101E440003460028F8D100F0CDF80346F4E700BFBC
:101E5400E812002038B5024600244301C10E181AC6
:101E640061EB04018B0043EA907385001946A818BE
:101E740044EB0101CB0043EA5073C20010461946FB
:101E84004FF47A720023FEF711FA38BD38B50446D0
:101E9400FFF746F9104B9B680C3B2269E1684A60E6
:101EA4001160A34202D0FFF73FF938BD04F10C02E0
:101EB400E3689A4207D00C3B05D0D3E90645064BAC
:101EC400C3E90045EFE7044B4FF0FF344FF0FF3513
:101ED400C3E90045E7E700BF300000202DE9F041E9
:101EE4008046FFF71DF91A49D8F81830D8F81C6055
:101EF4000A6849689C1846EB0105C8E90645154B74
:101F04009B680C3B03F10C0213498A4208D0D3E9C5
:101F14000667BD4208BFB44202D3DB680C3BF1E75D
:101F240008F10C011C691961C8F80C20C8F81040AC
:101F34002160084B9B68994203D0FFF7F5F8BDE890
:101F4400F081D8E90645034BC3E90045F5E700BF36
:101F5400D8000020300000203800002038B51E4B87
:101F6400D3E900231D49D1E90001994208BF9042F9
:101F740000D238BDFFF78AFE174B9C6854F80C5901
:101F84000C3D0DE0D4E90A23C4E906232046FFF7FB
:101F9400A5FF6368A0689847EB682C46A3F10C057D
:101FA40004F10C020E4B9A4212D0D4E906230B49D9
:101FB400D1E90001994208BF904209D32046FFF7B6
:101FC40065FF238E022BDDD0032384F83230E0E753
:101FD400FFF7E6FECDE700BF30000020D800002068
:101FE4003800002000207047436823F00203436058
:101FF400704700F10802436823F00303043BD01840
:10200400704710B50446FFF7F4FF046010BD10B527
:102014000446FFF7F6FF436843F002034360636836
:1020240043F00103636010BD10B50446FFF7E1FF00
:10203400FFF7DAFF636823F00103636010BD00005B
:1020440070B40E4B02EB4114203403EB8404656836
:10205400856003F11006C660E8606060012000FA44
:1020640001F51C6A2C431C629040083103EB810388
:102074005A681043586070BC704700BFD8050020F0
:1020840030B4C3688568EB609D6002EB411303F1D3
:102094002004124B03EB84035B68834201D030BC01
:1020A40070470E4800EB84035D6010308542F6D122
:1020B400012303FA02F401F10803103800EB83034F
:1020C4005A6822EA04025A60002AE8D1012303FA7A
:1020D40001F1036A23EA01030362E0E7D805002063
:1020E400436823F00303103199428CBF0020012080
:1020F400704710B500F108030C1F1C44436823F01B
:1021040003035B1A043B626802F003021343636037
:10211400436803F00303194341602046FFF777FF48
:10212400204610BD10B504464B6823F00303043366
:10213400426813444360FFF764FF204610BD034622
:1021440058B10B44581E4B420340B3F1804F05D89D
:102154000C2B38BF0C23184670477047002070477B
:102164000023084A12689A4207DD064A02EB8302FA
:102174005268824203D00133F3E700207047012004
:10218400704700BFD80500200023154A136005E0FE
:10219400134A02EB8302002151600133022BF7DD65
:1021A4000F4B03F110029A61DA610020186200E01B
:1021B4000130172812DC00F10803094A02EB8303FB
:1021C400002159601F29F3DC054A01EB4013203339
:1021D40002EB830310325A600131F3E7704700BF0A
:1021E400D805002008B5FEF797FFC0F1200008BD10
:1021F40008B5FFF7F7FF013808BD70B504460E4671
:1022040015467F2809D80346002804DB9B100020CC
:1022140030602B6070BDC31CF8E7FFF7E9FF431F74
:102224001C4184F020030638F2E710B582B004465E
:1022340040686A4601A920F00300FFF7DEFF009A18
:1022440001992046FFF7FCFE02B010BD38B50446E4
:102254000D46FFF745FF00B938BD29462046FFF774
:1022640048FF05462046FFF7CCFE6B6843F00203A7
:102274006B602846FFF7D9FFEEE710B5044630B18E
:10228400FFF7E4FF2046FFF7CFFE04F1080010BD7E
:1022940010B582B0044640686A4601A920F00300E4
:1022A400FFF7ABFF009A01992046FFF7E9FE02B061
:1022B40010BD38B50446436813F0020F01D120461F
:1022C40038BD05682846FFF7E3FF21462846FFF797
:1022D40029FF0446F3E738B50446FFF78AFE43684E
:1022E40013F0010F01D1204638BD0546FFF7D0FF9A
:1022F40029462046FFF716FF0446F4E770B5044666
:102304000D4616467F2805D8324629462046FFF753
:1023140074FF70BDFFF76CFF053801238340013B58
:102324001C44F1E708B543421840FFF75BFF01384E
:1023340008BD000070B506460D460468096804F13E
:102344000803144A02EB830250684FF0FF338B40BA
:10235400184012D10F4B186A01344FF0FF3303FABF
:1023640004F4204014D0FFF7DDFF0446306000F190
:102374000802084B03EB82035868FFF7D3FF286079
:1023840000EB44102030034C04EB8000406870BD27
:102394000020FCE7D805002010B582B0002301938B
:1023A400009388B16A4601A9FFF7A8FF019B172B88
:1023B4000CDC694601A8FFF7BDFF044638B1009A5A
:1023C4000199FFF75DFE02E0002400E000242046AE
:1023D40002B010BD10B50421FFF7B1FE0446FFF7AB
:1023E400DBFF034618B12146FFF747FF03461846B3
:1023F40010BD38B501FB00F52846FFF7EBFF044696
:1024040018B12A46002100F011F9204638BD68B100
:1024140010B5A0F108042046FFF7F9FD2046FFF7A8
:1024240048FFFFF758FFFFF700FF10BD704700009B
:1024340038B51F4B1B68032B2DD00C460546FFF700
:102444008FFE58BBA4F1080121F0030115F0030F1E
:1024540027D1A1F10C02174B9A4225D82C4654F8E7
:10246400043903F00303194341F00101616020467C
:10247400FFF7BAFD2046FFF7D8FE2046FFF7C1FD5F
:10248400022343600A4B1A68511C196003EB820350
:102494005D60002038BD40F22230FBE740F223307B
:1024A400F8E74FF44870F5E740F22130F2E700BF57
:1024B400D8050020F4FFFF3F38B504460D46FFF76A
:1024C40063FE29462046FFF7B3FF38BD842803D0B6
:1024D400C0F10300C0B270470A20704700B97047CA
:1024E400FF20FCE708B5FFF7A7FBFFF7F7FF08BDE0
:1024F40008B5FFF795FCFFF7F1FF08BD2DE9F041A2
:1025040086B00446002832D00F460669C6B1E56994
:10251400D4F80480B4F90800FFF7D8FF6369A2690E
:1025240003920293019600903B4642462168284656
:10253400FFF75AF9E8B9E569284606B0BDE8F08125
:10254400C569002DE3D14668B0F90800FFF7BEFF66
:102554006369A2690292019300903B463246216866
:1025640005A8FFF7F7F90028E6D1059DE4E705463D
:10257400E2E70025E0E708B5B0F1FF3F08D14FF0EE
:10258400FF304FF0FF31FFF7E5FAFFF7A7FF08BD73
:10259400FFF760FCF7E70000002103E00B4B5B58FA
:1025A400435004310A480B4B42189A42F6D30A4A64
:1025B40002E0002342F8043B084B9A42F9D3FEF7A9
:1025C40069FD00F00FF8FEF731F87047D0360008C7
:1025D40000000020A4000020A8000020F813002020
:1025E400FEE7000070B500260C4D0D4C641BA410D2
:1025F400A64209D100F0C2FF00260A4D0A4C641B12
:10260400A410A64205D170BD55F8043B9847013685
:10261400EEE755F8043B98470136F2E7C836000860
:10262400C8360008C8360008CC3600080346024401
:10263400934200D1704703F8011BF9E70FB40A4B2A
:1026440013B51C6824B1A36913B9204600F07AF8C5
:1026540005AB049AA1682046019300F095F902B0F5
:10266400BDE8104004B0704740000020034610B598
:10267400013932B111F8014F013A03F8014B002C32
:10268400F7D100211A44934200D110BD03F8011B75
:10269400F9E70000002310B50446C0E90033836065
:1026A40081814366C281C0E90433836119460822EB
:1026B4005C30FFF7BBFF054B24626362044BA362EB
:1026C400044BE362044B236310BD00BF152F0008C5
:1026D400372F00086F2F0008932F0008014900F0DE
:1026E400AFB800BF6D32000870B568254A1E554367
:1026F4000E4605F1740100F0C5F8044640B100210E
:10270400C0E900160C30A06005F16802FFF78EFFE7
:10271400204670BD014800F0B2B800BFF01300209D
:10272400014800F0ADB800BFF0130020014800F0EC
:10273400A6B800BFEB130020014800F0A1B800BF09
:10274400EB13002010B50446FFF7F0FFA3691BB19B
:10275400BDE81040FFF7F0BFC4E912332365134B03
:10276400134A1B68A262A34208BF0123204608BF84
:10277400A36100F01FF86060204600F01BF8A06021
:10278400204600F017F80022E06004216068FFF79B
:1027940081FF01220921A068FFF77CFF0222122198
:1027A400E068FFF777FF0123A361D1E7283600082B
:1027B400E1260008F8B50746FFF7ACFF1E4B1E687C
:1027C400B36913B93046FFF7BDFF4836D6E9013483
:1027D400013B03D533680BB33668F7E7B4F90C5003
:1027E400D5B9164B04F15800E360656600F046F86D
:1027F400FFF796FF2560C4E90155C4E90455A561B6
:102804000822294604F15C00FFF710FFC4E90D55C6
:10281400C4E912552046F8BD6834D9E70421384686
:10282400FFF762FF044630600028D5D1FFF778FF38
:102834000C233B60EEE700BF283600080100FFFFD1
:102844002DE9F84380468946002600F1480414B96E
:102854003046BDE8F883D4E90175013F01D5246809
:10286400F5E7AB89012B07D9B5F90E30013303D055
:1028740029464046C84706436835EEE77047704727
:1028840070470000F8B5CD1C25F0030508350C2D64
:1028940038BF0C25002D064601DBA94203D90C23C1
:1028A40033600020F8BD00F09FFD21490A681446FA
:1028B4009CB9204F3B6823B92146304600F018FBF1
:1028C40038602946304600F013FB431C23D10C2307
:1028D4003046336000F08EFDE3E723685B1B17D4BA
:1028E4000B2B03D923601C44256004E06368A242D7
:1028F4000CBF0B605360304600F07CFD04F10B000C
:10290400231D20F00700C21ACCD01B1AA350C9E71C
:1029140022466468CCE7C41C24F00304A042E3D03C
:10292400211A304600F0E4FA0130DDD1CFE700BFD0
:10293400E0000020E4000020936810B4013B002B69
:10294400936007DA9469A34201DB0A2902D110BC1F
:1029540000F022BB1368581C10601970084610BCA4
:102964007047F8B506460F461446D518AC4201D157
:10297400002007E03A4614F8011B3046FFF7DCFF5D
:10298400431CF3D1F8BD00002DE9F04F0D469DB076
:1029940014461E46074618B183690BB9FFF7D2FEE9
:1029A400854B9D421BD17D686B6ED90705D4AB89DD
:1029B4009A0502D4A86DFFF762FFAB891B0701D506
:1029C4002B69EBB92946384600F04AFBC0B16B6E5F
:1029D400D8070ED54FF0FF301DB0BDE8F08F774B10
:1029E4009D4201D1BD68DFE7754B9D4208BFFD687C
:1029F400DAE7AB899905EDD4A86DFFF741FFE9E764
:102A04000023099320238DF8293030234FF0010A45
:102A1400DFF8B0918DF82A30039623461E4613F84A
:102A2400012B0AB1252AF9D1B6EB040B0BD05B4676
:102A3400224629463846FFF794FF013000F0A38070
:102A4400099B5B4409933378002B00F09C8000239E
:102A54004FF0FF32CDE905230136049307938DF837
:102A640053301A933446052214F8011B554800F0DC
:102A7400ADFC049BC0B9DA0644BF20228DF8532074
:102A8400180744BF2B228DF8532032782A2A13D0FA
:102A9400344600200A26079A214611F8013B303BB0
:102AA400092B4BD970B914E0A0EB09000AFA00F025
:102AB400184304902646D5E7039A111D1268039122
:102AC400002A01DB079204E0524243F0020307921A
:102AD400049323782E2B0CD163782A2B33D1039BB8
:102AE40002341A1D1B680392002BB8BF4FF0FF334A
:102AF4000593354E03222178304600F067FC38B147
:102B04004023801B03FA00F0049B01340343049325
:102B140014F8011B06222D488DF8281000F056FCED
:102B240000283FD02A4B13BB039B073323F0070332
:102B340008330393099B434409936EE706FB02326F
:102B440001200C46A8E700230A2619460134059300
:102B5400204610F8012B303A092A03D9002BC8D09B
:102B64000591C6E706FB012101230446F0E703AB08
:102B740000932A46174B04A93846AFF30080B0F1FE
:102B8400FF3F8046D6D16B6ED90705D4AB899A0531
:102B940002D4A86DFFF774FEAB895B063FF51AAF4C
:102BA400099819E703AB00932A460A4B04A938464F
:102BB40000F088F8E3E700BF4C3600086C360008E4
:102BC4002C3600088C360008923600089636000829
:102BD40000000000672900082DE9F04791461F46D0
:102BE4008A680B6906469342B8BF1346C9F8003099
:102BF40091F843200C46DDF8208012B10133C9F866
:102C040000302368990642BFD9F800300233C9F86E
:102C14000030256815F0060507D104F1190AE368A8
:102C2400D9F800209B1AAB4229DC94F8433022687F
:102C3400003318BF012392062ED404F1430239460F
:102C44003046C047013021D02368E56803F006030D
:102C5400042B18BF0025D9F800204FF0000908BF45
:102C6400AD1AA368226908BF25EAE5759342C4BF7B
:102C74009B1AED181A344D451AD1002008E001239F
:102C8400524639463046C047013003D14FF0FF3039
:102C9400BDE8F0870135C2E73020E11881F8430030
:102CA4005A1C94F845102244023382F84310C4E7B6
:102CB4000123224639463046C0470130E6D009F1A7
:102CC4000109D8E72DE9F04306460C4601F143001B
:102CD400097E85B06E29984617460C9B00F0BB8090
:102CE40024D8632939D00AD8002900F0C48058298F
:102CF40000F0928004F1420584F8421035E0642922
:102D040001D06929F6D125681A6815F0800F02F1FF
:102D140004012CD012681960002A03DA2D235242D0
:102D240084F84330DFF8C0C10A233FE0732900F080
:102D3400A68008D86F2921D07029DBD1226842F0FF
:102D44002002226003E0752918D07829D2D1782294
:102D5400DFF898C184F8452062E01A6804F142055E
:102D6400111D1960136884F84230012394E012683D
:102D740015F0400F196018BF12B2CDE7D4F800C0A7
:102D84001A681CF0800F02F104051D6001D012685E
:102D940003E01CF0400FFAD012886F290CBF0823FF
:102DA4000A23DFF844C1002184F843106568002D2C
:102DB400A8BF2168A560A4BF21F0040121600AB95D
:102DC400002D46D00546B2FBF3F103FB112E1CF88F
:102DD4000EE0934205F801ED39D9082B0BD1236895
:102DE400DA0708D5236962689A42DEBF302305F802
:102DF400013C05F1FF35401B2061CDF800803B46C6
:102E040003AA21463046FFF7E7FE013049D14FF0CF
:102E1400FF3005B0BDE8F083DFF8CCC084F845107E
:102E24001D68216855F8042B1D600D060BD5CD07D0
:102E340044BF41F0200121601AB9236823F0200324
:102E440023601023AFE74B0648BF92B2EFE70A4670
:102E5400B9E70546C1E71A68D4F800C0151D6169D1
:102E64001CF0800F1D60136801D0196003E01CF092
:102E7400400FFAD01980002305462361BDE71A6884
:102E8400111D1960156800216268284600F09EFA39
:102E940008B1401B606063682361002384F84330F9
:102EA400ABE723692A4639463046C0470130AED0E5
:102EB40023689B0713D4E068039B9842B8BF184665
:102EC400A7E701234A4639463046C04701309ED021
:102ED4000135E368039A9B1AAB42F2DCEBE7002569
:102EE40004F11909F5E700BF9D360008AE36000865
:102EF40038B50023054C05460846236000F028FB3E
:102F0400431C02D1236803B12B6038BDF4130020A5
:102F140010B50C46B1F90E1000F0BEFA0028ABBF94
:102F2400636DA3891B1823F48053ACBF6365A3812D
:102F340010BD2DE9F0411F468B890546DB050C4683
:102F4400164605D502230022B1F90E1000F0C8F987
:102F5400A389324623F48053A381B4F90E103B466F
:102F64002846BDE8F04100F069B810B50C46B1F947
:102F74000E1000F0B5F9431CA38915BF606523F456
:102F8400805343F48053A38118BFA38110BDB1F9CA
:102F94000E1000F0D3B80000F8B50E4614460546EE
:102FA40018B183690BB9FFF7CDFB214B9C422BD1A0
:102FB4006C68A369A360A3891A072FD523696BB32F
:102FC40023692068F6B2C01A63693746834204DC79
:102FD4002146284600F048F930BBA3680130013B84
:102FE400A36023685A1C22601E706369834204D064
:102FF400A389DB0706D50A2E04D12146284600F012
:1030040033F988B93846F8BD0A4B9C4201D1AC6803
:10301400CFE7094B9C4208BFEC68CAE72146284623
:1030240000F01EF80028CBD04FF0FF37EAE700BFCE
:103034004C3600086C3600082C36000838B50546B6
:10304400084611460022054C22601A4600F08EFA0A
:10305400431C02D1236803B12B6038BDF413002054
:10306400324B70B51D6806460C4625B1AB6913B9E1
:103074002846FFF767FB2E4B9C420FD16C68B4F9CE
:103084000C309AB215072CD4D00611D40922326020
:1030940043F04003A3814FF0FF303EE0254B9C42B8
:1030A40001D1AC68EBE7244B9C4208BFEC68E6E72F
:1030B400510712D5616B41B104F14403994202D026
:1030C400304600F09DF900236363A38923F02403B1
:1030D400A3810023636023692360A38943F0080369
:1030E400A38123694BB9A38903F42073B3F5007F4B
:1030F40003D02146304600F029F9A28912F00103D9
:103104000CD00023A36063695B42A361236953B9B4
:10311400B4F90C3013F08000BAD170BD920758BFD7
:103124006369A360F2E70020F7E700BF40000020D6
:103134004C3600086C3600082C36000838B50023DD
:10314400054C05460846236000F0DAF9431C02D119
:10315400236803B12B6038BDF41300208A892DE95C
:10316400F041054610070C4658D44B68002B05DC8B
:103174000B6C002B02DC0020BDE8F081E66A002E17
:10318400F9D0002312F480522F682B6032D0606D86
:10319400A3895A0705D56368C01A636B0BB1236C06
:1031A400C01A00230246E66A216A2846B047431C37
:1031B400A38906D129681D292CD82A4ACA40D607D2
:1031C40028D5002262602269D904226004D5421CF9
:1031D40001D12B6803B96065616B2F600029CAD0E7
:1031E40004F14403994202D0284600F009F9002072
:1031F4006063C1E7216A01232846B047411CC7D157
:103204002B68002BC4D01D2B01D0162B01D12F60AD
:10321400B1E7A38943F04003A381ADE70F69002F11
:10322400A9D0930718BF00230E6808BF4B69A6EB0B
:1032340007080F608B60B8F1000F9CDD43463A46E7
:10324400216A2846A66AB047002806DCA3894FF005
:10325400FF3043F04003A3818EE70744A8EB000846
:10326400E9E700BF0100402038B50B6905460C466C
:1032740013B90025284638BD18B183690BB9FFF787
:1032840061FA144B9C421BD16C68B4F90C30002BCE
:10329400EFD0626ED00704D4990502D4A06DFFF775
:1032A400EEFA28462146FFF759FF636E0546DA0712
:1032B400E0D4A3899B05DDD4A06DFFF7E1FAD9E73B
:1032C400054B9C4201D1AC68DFE7044B9C4208BF2C
:1032D400EC68DAE74C3600086C3600082C36000837
:1032E40038B50546084611460022054C22601A46A8
:1032F40000F01EF9431C02D1236803B12B6038BDD2
:10330400F413002070B50E46B1F90E1096B00029E2
:1033140014461D4607DA00232B60B3891A0610D41D
:103324004FF480630EE06A4600F0C8F80028F2DB30
:10333400019A02F47042A2F500535A425A412A609B
:10334400EEE740230020236016B070BD8B8973B56F
:103354009D0706460C4607D504F147032360236105
:103364000123636102B070BD01AB6A46FFF7CAFF77
:10337400009905463046FFF785FA48B9B4F90C3090
:103384009A05EFD423F0030343F00203A381E3E798
:103394000D4BB362A389206043F08003A381009B9B
:1033A40020616361019B5BB1B4F90E10304600F0FB
:1033B40097F828B1A38923F0030343F00103A38101
:1033C400A3891D43A581CDE7E126000810B5C9B244
:1033D40002449042034601D1002303E01C780130EB
:1033E4008C42F6D1184610BD0148FFF748BA00BF19
:1033F400EC1300200148FFF743BA00BFEC13002090
:1034040038B50546002943D051F8043C0C1F002B65
:10341400B8BFE418FFF7E8FF1E4A1368104633B933
:10342400636014602846BDE83840FFF7E3BFA34259
:103434000BD921686218934201BF1A685B6852185D
:10344400226063600460EDE713465A680AB1A24241
:10345400FAD919685818A0420BD1206801445818A9
:1034640082421960DED110685268014419605A60C2
:10347400D8E702D90C232B60D4E7206821188A42AC
:1034840001BF116852680918216062605C60C9E775
:1034940038BD00BFE000002038B505460846114697
:1034A4000022054C22601A4600F04AF8431C02D15F
:1034B400236803B12B6038BDF413002038B5002312
:1034C400064C054608461146236000F021F8431CCB
:1034D40002D1236803B12B6038BD00BFF413002070
:1034E40038B50023054C05460846236000F018F85B
:1034F400431C02D1236803B12B6038BDF4130020B0
:103504005822024B4FF0FF301A607047F41300202A
:103514005822024B4FF0FF301A607047F41300201A
:103524005822024B00201A60704700BFF413002099
:103534005822024B4FF0FF301A607047F4130020FA
:103544005822024B4FF0FF301A607047F4130020EA
:10355400044A05491368002B08BF0B461844106041
:1035640018467047E8000020F81300205822024B48
:103574004FF0FF301A607047F4130020F8B500BF15
:10358400F8BC08BC9E467047F8B500BFF8BC08BC40
:043594009E46704798
:1035980002030405060708090A0B0C0D0E0F10108C
:1035A80001020000CC350008B50500080000000045
:1035B80001000000F00000200002000000000000F0
:1035C800F00200207461736B310000000D0A486539
:1035D8006C6C6F20776F726C64210D0A232323545F
:1035E800686973206973207461736B31202C636F71
:1035F800756E74206973202564200D0A0000000090
:10360800000000000000000001020304060708098A
:10361800D80300200002000069646C650000000007
:10362800440000200000000000000000000000002E
:103638000000000000000000000000000000000082
:103648000000000000000000000000000000000072
:103658000000000000000000000000000000000062
:103668000000000000000000000000000000000052
:103678000000000000000000000000000000000042
:1036880000000000232D302B2000686C4C0065667C
:10369800674546470030313233343536373839419B
:1036A80042434445460030313233343536373839B1
:0836B8006162636465660000B5
:0836C00020CCFF7F0100000097
:0436C80009020008EB
:0436CC00E50100080C
:1036D000010000001000000000A24A0400000000E9
:1036E000E80300000000000018000020180000207F
:1036F00020000020200000202800002028000020BA
:10370000FFFFFFFFFFFFFFFF380000203800002011
:1037100044000020000000004C3600086C36000811
:103720002C3600080000000000000000000000002F
:103730000000000000000000000000000000000089
:103740000000000000000000000000000000000079
:103750000000000000000000000000000000000069
:103760000000000000000000000000000000000059
:043770000000000055
:040000050800259D2D
:00000001FF
