:020000040800F2
:1000000000000120490D0008FD020008FF02000861
:1000100001030008030300080503000800000000B6
:1000200000000000000000000000000007030008BE
:1000300009030008000000000B0300080D0300087E
:10004000910D0008910D0008910D0008910D000818
:10005000910D0008910D0008910D0008910D000808
:10006000910D0008910D0008910D0008910D0008F8
:10007000910D0008910D0008910D0008910D0008E8
:10008000910D0008910D0008910D0008910D0008D8
:10009000910D0008910D0008910D0008910D0008C8
:1000A000910D0008910D0008910D0008910D0008B8
:1000B000910D0008910D0008910D0008910D0008A8
:1000C000910D0008910D0008910D0008910D000898
:1000D000910D0008910D0008910D0008910D000888
:1000E000910D0008910D0008910D0008910D000878
:1000F000910D0008910D0008910D0008910D000868
:10010000910D0008910D0008910D0008910D000857
:10011000910D0008910D0008910D0008910D000847
:10012000910D0008910D0008910D0008910D000837
:1001300000000000000000000000000000000000BF
:1001400000000000000000000000000000000000AF
:10015000000000000000000000000000000000009F
:10016000000000000000000000000000000000008F
:10017000000000000000000000000000000000007F
:10018000000000000000000000000000000000006F
:10019000000000000000000000000000000000005F
:1001A000000000000000000000000000000000004F
:1001B000000000000000000000000000000000003F
:1001C000000000000000000000000000000000002F
:1001D000000000000000000000000000000000001F
:0401E0005FF8E0F1F3
:1001E40010B5054C237833B9044B13B10448AFF36D
:1001F40000800123237010BD0C00002000000000CB
:10020400DC0D000808B5034B1BB103490348AFF3E9
:10021400008008BD0000000010000020DC0D000874
:1002240030B591B0002409940B940C940194029479
:10023400039404940594012206924FF480330793A7
:1002440008940A9202250D950E934FF4E0130F9330
:1002540006A800F0DFF80F230193029503944FF4EE
:10026400806304930594294601A800F0F9FA11B0BB
:1002740030BD08B500F094F8FFF7D2FF00F002F8A3
:10028400FEE7000030B589B0002404940594069478
:100294000794174B9A6942F010029A619A6902F026
:1002A40010020192019A9A6942F008029A619A69CD
:1002B40002F008020292029A9A6942F004029A61D8
:1002C4009B6903F004030393039B0A4D012223213A
:1002D400284600F0AFFC23230493012305930694DE
:1002E4000323079304A9284600F088FB09B030BD16
:1002F40000100240000C01407047FEE7FEE7FEE7F5
:10030400FEE770477047704708B500F05BF808BD1A
:1003140082B00E4B9A6942F001029A619A6902F026
:1003240001020092009ADA6942F08052DA61DB69D4
:1003340003F080530193019B054A536823F0E06363
:1003440043F00073536002B0704700BF00100240D6
:100354000000014010B504460E4B18784FF47A7330
:10036400B3FBF0F30C4A1068B0FBF3F000F0AEFC02
:1003740068B90F2C01D901200AE0002221464FF070
:10038400FF3000F06FFC054B1C60002000E00120F2
:1003940010BD00BF00000020080000200400002061
:1003A40008B5074A136843F010031360032000F0F4
:1003B40047FC0020FFF7CEFFFFF7AAFF002008BD8F
:1003C40000200240034A1168034B1B780B4413605E
:1003D400704700BF2800002000000020014B18686F
:1003E400704700BF2800002082B0084B1B68084AF1
:1003F400A2FB03235B0A00FB03F3019300BF019BF1
:100404005A1E0192002BF9D102B070470800002057
:10041400D34D621070B582B00446036813F0010F27
:100424002CD0AB4B5B6803F00C03042B1DD0A84B02
:100434005B6803F00C03082B12D06368B3F5803FAC
:1004440041D0002B55D103F1804303F504331A68DE
:1004540022F480321A601A6822F480221A6037E08B
:100464009B4B5B6813F4803FE7D0994B1B6813F4F4
:10047400003F03D06368002B00F0AE81236813F0C3
:10048400020F75D0924B5B6813F00C0F5FD0904B4A
:100494005B6803F00C03082B54D02369002B00F095
:1004A40089808C4B01221A60FFF798FF0546884B20
:1004B4001B6813F0020F74D1FFF790FF401B022852
:1004C400F5D903208DE1824A136843F48033136025
:1004D400636843B3FFF782FF05467D4B1B6813F443
:1004E400003FCBD1FFF77AFF401B6428F5D90320E6
:1004F40077E1B3F5A02F09D0754B1A6822F4803246
:100504001A601A6822F480221A60E1E703F180433A
:10051400A3F53C331A6842F480221A601A6842F444
:1005240080321A60D4E7FFF759FF0546684B1B6811
:1005340013F4003FA2D0FFF751FF401B6428F5D904
:1005440003204EE1624B5B6813F4803FA5D1604BFE
:100554001B6813F0020F03D02369012B40F03E8186
:100564005B4A136823F0F803616943EAC10313602B
:10057400236813F0080F32D0A369002B45D0564BE3
:1005840001221A60FFF72AFF0546514B5B6A13F0FC
:10059400020F21D1FFF722FF401B0228F5D90320C7
:1005A4001FE14B4A136823F0F803616943EAC1036E
:1005B4001360DDE7474B00221A60FFF70FFF054683
:1005C400434B1B6813F0020FD2D0FFF707FF401B09
:1005D4000228F5D9032004E10120FFF705FF236871
:1005E40013F0040F00F09880394BDB6913F0805F3F
:1005F4001DD1374BDA6942F08052DA61DB6903F0CE
:1006040080530193019B012512E0334B00221A60B1
:10061400FFF7E4FE05462E4B5B6A13F0020FDED0B3
:10062400FFF7DCFE401B0228F5D90320D9E00025A2
:100634002A4B1B6813F4807F11D0E368012B22D06E
:10064400002B38D103F1804303F504331A6A22F0F6
:1006540001021A621A6A22F004021A6218E01F4A9E
:10066400136843F480731360FFF7B8FE06461B4B10
:100674001B6813F4807FE0D1FFF7B0FE801B642871
:10068400F5D90320ADE0124A136A43F00103136263
:10069400E3687BB3FFF7A2FE06460D4B1B6A13F01B
:1006A400020F38D1FFF79AFE801B41F2883398423B
:1006B400F3D9032095E0052B12D0054B1A6A22F0DA
:1006C40001021A621A6A22F004021A62E0E700BF09
:1006D4000010024000004242800442420070004088
:1006E400424B1A6A42F004021A621A6A42F0010288
:1006F4001A62CDE7FFF772FE06463C4B1B6A13F005
:10070400020F08D0FFF76AFE801B41F2883398423B
:10071400F3D9032065E0E5B9E369002B60D0334ADF
:10072400526802F00C02082A5DD0022B17D0304B1D
:1007340000221A60FFF752FE04462C4B1B6813F08C
:10074400007F47D0FFF74AFE001B0228F5D903209B
:1007540047E0264AD36923F08053D361DCE7244B76
:1007640000221A60FFF73AFE0546204B1B6813F07F
:10077400007F06D0FFF732FE401B0228F5D9032084
:100784002FE0236AB3F5803F1AD018494B6823F44D
:100794007413226A606A024313434B60144B0122B0
:1007A4001A60FFF71BFE0446104B1B6813F0007F12
:1007B4000ED1FFF713FE001B0228F5D9032010E029
:1007C4000A4A536823F40033A1680B435360DCE7FF
:1007D400002006E0002004E0012002E0012000E007
:1007E400002002B070BD0120FBE700BF00100240F2
:1007F4006000424286B0164B0FCB0DF1180C0CE989
:100804000F0040F20123ADF80430124B5B6803F093
:100814000C02082A02D0104806B07047C3F3834282
:10082400624412F8102C13F4803F0CD0094B5B681F
:10083400C3F34043634413F8143C074800FB02F03D
:10084400B0FBF3F0E8E7054800FB02F0E4E700BF83
:10085400F40D00080010024000127A0000093D0067
:1008640070B504460D46614B1B6803F007038B42C9
:100874000BD25E4A136823F007030B43136013681B
:1008840003F007038B4240F0AB80236813F0020FA0
:1008940017D013F0040F04D0554A536843F4E063AF
:1008A4005360236813F0080F04D0514A536843F48B
:1008B400605353604E4A536823F0F003A1680B431E
:1008C4005360236813F0010F52D06368012B23D0C7
:1008D400022B28D0464A126812F0020F00F08280E0
:1008E40043494A6822F0030213434B60FFF776FD45
:1008F40006466368012B1DD0022B2AD03C4B5B6853
:1009040013F00C0F34D0FFF769FD831B41F28832DA
:100914009342F3D9032062E0354A126812F4003F8F
:10092400DED101205BE0324A126812F0007FD7D199
:10093400012054E02E4B5B6803F00C03042B17D00A
:10094400FFF74CFD831B41F288329342F2D9032016
:1009540045E0274B5B6803F00C03082B08D0FFF736
:100964003DFD801B41F288339842F2D9032036E0E2
:100974001E4B1B6803F00703AB420AD91B4A1368DA
:1009840023F007032B431360136803F00703AB4200
:100994002AD1236813F0040F06D0154A536823F4B0
:1009A400E063E1680B435360236813F0080F07D03A
:1009B4000F4A536823F46053216943EAC103536027
:1009C400FFF718FF0A4B5B68C3F30313094AD35CB0
:1009D400D840094B18600020FFF7BCFC002070BD14
:1009E4000120FCE70120FAE70120F8E7002002409B
:1009F40000100240080E000808000020F0B482B085
:100A040000252C46ABE0854FBB4210D007D9844F5C
:100A1400BB420CD007F58037BB4208D013E0A7F5E2
:100A24008017BB4203D007F57027BB4207D18B6800
:100A3400002B60D0012B59D04261082503E0A7F5B3
:100A44008017BB42F3D0FF2E57D88446FF2E57D8C9
:100A5400A200DCF800300F27974023EA070305FAC9
:100A640002F21343CCF800304B6813F0805F75D06A
:100A74006C4B9A6942F001029A619B6903F001038D
:100A84000193019BA208971C674B53F827C004F0FD
:100A940003039F000F23BB402CEA030C634B9842D3
:100AA40034D003F58063984200F0948003F58063AA
:100AB400984200F0918003F58063984200F08E80A4
:100AC40003F58063984200F08B8003F580639842BD
:100AD4001AD006231BE0CD68B5E7CD680435B2E72C
:100AE400CD680835AFE7CD680C35ACE70261082561
:100AF400A9E70025A7E70425A5E700F1040CA5E76D
:100B0400A4F108029200A4E7052300E00023BB40FF
:100B140043EA0C030232444F47F822304B6813F483
:100B2400803F5FD0424A1368334313604B6813F429
:100B3400003F5DD03E4A5368334353604B6813F41F
:100B4400801F5BD03A4A9368334393604B6813F435
:100B5400001F59D0364AD3681E43D66001340F2C87
:100B640058D80122A2400B6803EA020632EA0303C2
:100B7400F4D14B68122B3FF646AF122B3FF663AF0E
:100B840001A757F823F000BF330A0008DB0A000866
:100B9400E50A0008F70A00084B0A00084B0A000897
:100BA4004B0A00084B0A00084B0A00084B0A0008CD
:100BB4004B0A00084B0A00084B0A00084B0A0008BD
:100BC4004B0A00084B0A00084B0A0008DF0A000819
:100BD400EB0A000801239AE7022398E7032396E728
:100BE400042394E7124A136823EA060313609DE77B
:100BF4000F4A536823EA060353609FE70C4A93683D
:100C040023EA06039360A1E7094AD36823EA0606A8
:100C1400D660A3E702B0F0BC704700BF000022100A
:100C240000003110001002400000014000080140A3
:100C3400000401400AB10161704709040161704771
:100C4400074AD36823F4E0631B041B0C000200F47E
:100C5400E060034343F0BF6343F40033D360704761
:100C640000ED00E030B4174BDB68C3F30223C3F19B
:100C74000704042C28BF04241D1D062D18D9033B8A
:100C84004FF0FF3505FA04F421EA0401994005FA0E
:100C940003F322EA0303194300280BDB0901C9B259
:100CA40000F1604000F5614080F8001330BC7047EB
:100CB4000023E5E700F00F000901C9B2024B195403
:100CC400F4E700BF00ED00E014ED00E00138B0F1FE
:100CD400807F0AD2064B5860064AF02182F823101E
:100CE4000020986007221A6070470120704700BFF7
:100CF40010E000E000ED00E00F4B1A6842F0010242
:100D04001A6059680D4A0A405A601A6822F08472BF
:100D140022F480321A601A6822F480221A605A6817
:100D240022F4FE025A604FF41F029A60044B4FF003
:100D340000629A60704700BF001002400000FFF894
:100D440000ED00E0002103E00B4B5B5843500431FD
:100D54000A480B4B42189A42F6D30A4A02E000238F
:100D640042F8043B084B9A42F9D3FFF7C5FF00F061
:100D74000FF8FFF77EFA7047200E000800000020ED
:100D84000C0000200C0000202C000020FEE70000D6
:100D940070B500260C4D0D4C641BA410A64209D15D
:100DA40000F01AF800260A4D0A4C641BA410A6424F
:100DB40005D170BD55F8043B98470136EEE755F868
:100DC400043B98470136F2E7180E0008180E000895
:100DD400180E00081C0E0008F8B500BFF8BC08BCCB
:100DE4009E467047F8B500BFF8BC08BC9E467047E5
:100DF40002030405060708090A0B0C0D0E0F101058
:100E040000000000000000000000000001020304D4
:040E140006070809BC
:040E180009020008C3
:040E1C00E5010008E4
:0C0E2000010000001000000000A24A04C5
:0400000508000D4999
:00000001FF
